:020000040000fa
:080000000002040000000000f2
:020000040000fa
:040008007a04000076
:020000040000fa
:04000c004a030000a3
:020000040000fa
:040010005c0300008d
:020000040000fa
:040014005203000093
:020000040000fa
:04001800640300007d
:020000040000fa
:04001c007a04000062
:020000040000fa
:040020007a0400005e
:020000040000fa
:040024007a0400005a
:020000040000fa
:040028007a04000056
:020000040000fa
:04002c007a04000052
:020000040000fa
:040030007a0400004e
:020000040000fa
:040034007a0400004a
:020000040000fa
:04003800820300003f
:020000040000fa
:04003c007a04000042
:020000040000fa
:040040007a0400003e
:020000040000fa
:040044007a0400003a
:020000040000fa
:04004800460400006a
:020000040000fa
:04004c007a04000032
:020000040000fa
:040050007a0400002e
:020000040000fa
:040054007a0400002a
:020000040000fa
:040058007a04000026
:020000040000fa
:04005c003403000069
:020000040000fa
:040060002804000070
:020000040000fa
:040064007a0400001a
:020000040000fa
:040068007a04000016
:020000040000fa
:04006c007a04000012
:020000040000fa
:040070007a0400000e
:020000040000fa
:040074007a0400000a
:020000040000fa
:040078007a04000006
:020000040000fa
:04007c007a04000002
:020000040000fa
:040080007a040000fe
:020000040000fa
:040084007a040000fa
:020000040000fa
:040088007a040000f6
:020000040000fa
:04008c007a040000f2
:020000040000fa
:040090007a040000ee
:020000040000fa
:040094007a040000ea
:020000040000fa
:040098007a040000e6
:020000040000fa
:04009c007a040000e2
:020000040000fa
:0400a0007a040000de
:020000040000fa
:0400a4007a040000da
:020000040000fa
:0400a8007a040000d6
:020000040000fa
:0400ac007a040000d2
:020000040000fa
:0400b0007a040000ce
:020000040000fa
:0400b4007a040000ca
:020000040000fa
:0400b8007a040000c6
:020000040000fa
:0400bc007a040000c2
:020000040000fa
:0400c0007a040000be
:020000040000fa
:0400c4007a040000ba
:020000040000fa
:0400c8007a040000b6
:020000040000fa
:0400cc007a040000b2
:020000040000fa
:0400d0007a040000ae
:020000040000fa
:0400d4007a040000aa
:020000040000fa
:0400d8007a040000a6
:020000040000fa
:0400dc007a040000a2
:020000040000fa
:0400e0007a0400009e
:020000040000fa
:0400e4007a0400009a
:020000040000fa
:0400e8007a04000096
:020000040000fa
:0400ec007a04000092
:020000040000fa
:0400f0007a0400008e
:020000040000fa
:0400f4007a0400008a
:020000040000fa
:0400f8007a04000086
:020000040000fa
:0400fc007a04000082
:020000040000fa
:040100007a0400007d
:020000040000fa
:040104007a04000079
:020000040000fa
:040108007a04000075
:020000040000fa
:04010c007a04000071
:020000040000fa
:040110007a0400006d
:020000040000fa
:040114007a04000069
:020000040000fa
:040118007a04000065
:020000040000fa
:04011c007a04000061
:020000040000fa
:040120007a0400005d
:020000040000fa
:040124007a04000059
:020000040000fa
:040128007a04000055
:020000040000fa
:04012c007a04000051
:020000040000fa
:040130007a0400004d
:020000040000fa
:040134007a04000049
:020000040000fa
:040138007a04000045
:020000040000fa
:04013c007a04000041
:020000040000fa
:040140007a0400003d
:020000040000fa
:040144007a04000039
:020000040000fa
:040148007a04000035
:020000040000fa
:04014c007a04000031
:020000040000fa
:040150007a0400002d
:020000040000fa
:040154007a04000029
:020000040000fa
:040158007a04000025
:020000040000fa
:04015c007a04000021
:020000040000fa
:040160007a0400001d
:020000040000fa
:040164007a04000019
:020000040000fa
:040168007a04000015
:020000040000fa
:04016c007a04000011
:020000040000fa
:040170007a0400000d
:020000040000fa
:040174007a04000009
:020000040000fa
:040178007a04000005
:020000040000fa
:04017c007a04000001
:020000040000fa
:040180000803000070
:020000040000fa
:040184007a040000f9
:020000040000fa
:040188007a040000f5
:020000040000fa
:04018c007a040000f1
:020000040000fa
:040190007a040000ed
:020000040000fa
:040194007a040000e9
:020000040000fa
:040198007a040000e5
:020000040000fa
:04019c007a040000e1
:020000040000fa
:0401a0007a040000dd
:020000040000fa
:0401a4007a040000d9
:020000040000fa
:0401a8007a040000d5
:020000040000fa
:0401ac007a040000d1
:020000040000fa
:0401b0007a040000cd
:020000040000fa
:0401b4007a040000c9
:020000040000fa
:0401b8007a040000c5
:020000040000fa
:0401bc007a040000c1
:020000040000fa
:0401c0007a040000bd
:020000040000fa
:0401c4007a040000b9
:020000040000fa
:0401c8007a040000b5
:020000040000fa
:0401cc006c030000c0
:020000040000fa
:0401d0007a040000ad
:020000040000fa
:0401d4007a040000a9
:020000040000fa
:0401d8007a040000a5
:020000040000fa
:0401dc007a040000a1
:020000040000fa
:0401e0007a0400009d
:020000040000fa
:0401e4007a04000099
:020000040000fa
:0401e8007a04000095
:020000040000fa
:0401ec007a04000091
:020000040000fa
:0401f0007a0400008d
:020000040000fa
:0401f4007a04000089
:020000040000fa
:0401f8007a04000085
:020000040000fa
:0401fc007a04000081
:020000040000fa
:040208007a04000074
:020000040000fa
:04020c004a030000a1
:020000040000fa
:040210005c0300008b
:020000040000fa
:040214005203000091
:020000040000fa
:04021800640300007b
:020000040000fa
:04021c007a04000060
:020000040000fa
:040220007a0400005c
:020000040000fa
:040224007a04000058
:020000040000fa
:040228007a04000054
:020000040000fa
:04022c007a04000050
:020000040000fa
:040230007a0400004c
:020000040000fa
:040234007a04000048
:020000040000fa
:04023800820300003d
:020000040000fa
:04023c007a04000040
:020000040000fa
:040240007a0400003c
:020000040000fa
:040244007a04000038
:020000040000fa
:040248004604000068
:020000040000fa
:04024c007a04000030
:020000040000fa
:040250007a0400002c
:020000040000fa
:040254007a04000028
:020000040000fa
:040258007a04000024
:020000040000fa
:04025c003403000067
:020000040000fa
:04026000280400006e
:020000040000fa
:040264007a04000018
:020000040000fa
:040268007a04000014
:020000040000fa
:04026c007a04000010
:020000040000fa
:040270007a0400000c
:020000040000fa
:040274007a04000008
:020000040000fa
:040278007a04000004
:020000040000fa
:04027c007a04000000
:020000040000fa
:040280007a040000fc
:020000040000fa
:040284007a040000f8
:020000040000fa
:040288007a040000f4
:020000040000fa
:04028c007a040000f0
:020000040000fa
:040290007a040000ec
:020000040000fa
:040294007a040000e8
:020000040000fa
:040298007a040000e4
:020000040000fa
:04029c007a040000e0
:020000040000fa
:0402a0007a040000dc
:020000040000fa
:0402a4007a040000d8
:020000040000fa
:0402a8007a040000d4
:020000040000fa
:0402ac007a040000d0
:020000040000fa
:0402b0007a040000cc
:020000040000fa
:0402b4007a040000c8
:020000040000fa
:0402b8007a040000c4
:020000040000fa
:0402bc007a040000c0
:020000040000fa
:0402c0007a040000bc
:020000040000fa
:0402c4007a040000b8
:020000040000fa
:0402c8007a040000b4
:020000040000fa
:0402cc007a040000b0
:020000040000fa
:0402d0007a040000ac
:020000040000fa
:0402d4007a040000a8
:020000040000fa
:0402d8007a040000a4
:020000040000fa
:0402dc007a040000a0
:020000040000fa
:0402e0007a0400009c
:020000040000fa
:0402e4007a04000098
:020000040000fa
:0402e8007a04000094
:020000040000fa
:0402ec007a04000090
:020000040000fa
:0402f0007a0400008c
:020000040000fa
:0402f4007a04000088
:020000040000fa
:0402f8007a04000084
:020000040000fa
:0402fc007a04000080
:020000040000fa
:040300007a0400007b
:020000040000fa
:040304007a04000077
:020000040000fa
:040308007a04000073
:020000040000fa
:04030c007a0400006f
:020000040000fa
:040310007a0400006b
:020000040000fa
:040314007a04000067
:020000040000fa
:040318007a04000063
:020000040000fa
:04031c007a0400005f
:020000040000fa
:040320007a0400005b
:020000040000fa
:040324007a04000057
:020000040000fa
:040328007a04000053
:020000040000fa
:04032c007a0400004f
:020000040000fa
:040330007a0400004b
:020000040000fa
:040334007a04000047
:020000040000fa
:040338007a04000043
:020000040000fa
:04033c007a0400003f
:020000040000fa
:040340007a0400003b
:020000040000fa
:040344007a04000037
:020000040000fa
:040348007a04000033
:020000040000fa
:04034c007a0400002f
:020000040000fa
:040350007a0400002b
:020000040000fa
:040354007a04000027
:020000040000fa
:040358007a04000023
:020000040000fa
:04035c007a0400001f
:020000040000fa
:040360007a0400001b
:020000040000fa
:040364007a04000017
:020000040000fa
:040368007a04000013
:020000040000fa
:04036c007a0400000f
:020000040000fa
:040370007a0400000b
:020000040000fa
:040374007a04000007
:020000040000fa
:040378007a04000003
:020000040000fa
:04037c007a040000ff
:020000040000fa
:04038000080300006e
:020000040000fa
:040384007a040000f7
:020000040000fa
:040388007a040000f3
:020000040000fa
:04038c007a040000ef
:020000040000fa
:040390007a040000eb
:020000040000fa
:040394007a040000e7
:020000040000fa
:040398007a040000e3
:020000040000fa
:04039c007a040000df
:020000040000fa
:0403a0007a040000db
:020000040000fa
:0403a4007a040000d7
:020000040000fa
:0403a8007a040000d3
:020000040000fa
:0403ac007a040000cf
:020000040000fa
:0403b0007a040000cb
:020000040000fa
:0403b4007a040000c7
:020000040000fa
:0403b8007a040000c3
:020000040000fa
:0403bc007a040000bf
:020000040000fa
:0403c0007a040000bb
:020000040000fa
:0403c4007a040000b7
:020000040000fa
:0403c8007a040000b3
:020000040000fa
:0403cc006c030000be
:020000040000fa
:0403d0007a040000ab
:020000040000fa
:0403d4007a040000a7
:020000040000fa
:0403d8007a040000a3
:020000040000fa
:0403dc007a0400009f
:020000040000fa
:0403e0007a0400009b
:020000040000fa
:0403e4007a04000097
:020000040000fa
:0403e8007a04000093
:020000040000fa
:0403ec007a0400008f
:020000040000fa
:0403f0007a0400008b
:020000040000fa
:0403f4007a04000087
:020000040000fa
:0403f8007a04000083
:020000040000fa
:0403fc007a0400007f
:020000040000fa
:100400000f6321000e7f22000e0188000000000013
:10041000000020000000e000020032000001200087
:100420002002880014000700340107000000e000eb
:1004300003003a00003823000100200002003700ca
:100440000000200001002000810f70000100320038
:1004500014000700000020000000e000020032004d
:10046000000002000000000062180200000000000e
:100470000040da000000fe004440a900800b20008c
:100480000000e000030032000020200090018800fe
:100490004440a800000006008a1f78008b1f7800e7
:1004a00000000600a1028800800478000000eb0034
:1004b0001f003700e284440054a0b4009905ba003c
:1004c000e284440054a0b4009906ba00e2844400d7
:1004d00054a0b4000006eb00476fde00fd07b20039
:1004e000ae018800636ce10003003a00eaff0700f8
:1004f0000000eb000e003700606ce10008003a00dd
:10050000004deb000a05e800020039003420ec0041
:100510000af0a0008b05e900f9ff3e000400370057
:100520006168e100010032000086eb000b0007006b
:1005300019c7ba001905ba000e04e00003003a001a
:100540000a00e000dbff3a0000000600fe07b200f0
:10055000ae0288008a047800f5ff37000cd0a300b3
:10056000e20f4d001c00390089027800354dba00b9
:100570000a05e800020039003420ec000af0a0006f
:100580008b05e9000f003200254dba000a05e8008e
:10059000020039003420ec000af0a0008b05e900cd
:1005a000080032000c00e0000600320015cdba0051
:1005b0000a05e800020039003420ec000af0a0002f
:1005c0008b05e9008984e80054a0b4000b00e0002a
:1005d000e2ff3a00000006009902ba00055d7800cb
:1005e0008b05e900f7ff3200c82ade00055d7800c0
:1005f0008b05e900f3ff32000c00e000f1ff320050
:1006000019ddba00eeff37007e1e04000000000076
:100610003600f800809fbe00829fbe00849fbe000f
:10062000869fbe003200f8003400f8001000200061
:10063000a001880000202000900188000000fa003e
:10064000510307000080fa003400f9003200f9007d
:100650004f03be004f02be004f01be004f00be0060
:100660003600f90000400600809fbe000000fa003e
:100670002104800000002200008060000000e000f3
:100680000100320085a0a9000080fa004f00be00e2
:10069000004006003600f8008020a9000000eb00b2
:1006a000121907003600f800141907008040a9004d
:1006b000100020000d1907003600f8008060a90026
:1006c00020002000091907003600f8008080a900ea
:1006d0003000200005190700809fbe000000fa00ce
:1006e0008104800000202000008060000000e00005
:1006f000010032009120a9000080fa004f00be00e6
:10070000004006003600f800809fbe00829fbe00b9
:10071000849fbe00869fbe000000fa000046800055
:100720004146800000014000c08d200000004100d3
:10073000010878000046800051468000000140001a
:10074000c09d2000000041000108780000468000a4
:100750006146800000014000c0ad20000000410063
:1007600001087800004680007146800000014000ca
:10077000c0bd200000004100010878000046800054
:100780008146800000014000c0cd200000004100f3
:10079000010878000046800091468000000140007a
:1007a000c0dd200000004100010878000046800004
:1007b000a146800000014000c0ed20000000410083
:1007c0000108780000468000b1468000000140002a
:1007d000c0fd2000000041000108780000468000b4
:1007e000c146800000014000c00d21000000410012
:1007f0000108780000468000d146800000014000da
:10080000c01d210000004100010878000046800062
:100810000000e80000468800014680000008200033
:10082000808f500002003a00e20a0700c028ef0063
:100830008480a9000080fa004f03be004f02be0072
:100840004f01be004f00be003600f9000040060018
:100850003600f800809fbe00829fbe00849fbe00cd
:10086000869fbe000000fa00e40c070085c0a900c6
:100870000080fa004f03be004f02be004f01be00d1
:100880004f00be003600f900004006003600f800b8
:10089000809fbe00829fbe00849fbe00869fbe00d8
:1008a0000000fa006e170700e04580000000e80035
:1008b000e0458800f05e2100104078008040e800ac
:1008c000f05e210001487800e05e210011c0b30015
:1008d000014878008500a9000080fa004f03be009f
:1008e0004f02be004f01be004f00be003600f900af
:1008f000004006000040da000000fe000000050095
:1009000003f0a200889fbe008a9fbe008c1f780063
:10091000fa000700010133006450e1004f0032008b
:100920006420e1005200320003826c0007003b00ab
:100930000905d0000306d000820f54000c065d00ac
:1009400002003900020032008901780003067800b5
:100950008582550004003d000003fd008103fd0079
:100960008502ea008b854200840f720002003b0082
:1009700060001000e08018006011b8000005eb0076
:100980007a28e1000a00390006007800c75ddd0022
:10099000f707b200878075002d0037008281710053
:1009a0000a017800610560008180d1000080d300d9
:1009b0008502e900f9ff3b000604400087844800f7
:1009c00002003b0060041400e0841c000988a300be
:1009d000070032008a817100828171006101640028
:1009e0008904d1000884d3008b05e8001700370084
:1009f0000978a30013003a000b00e0001300340054
:100a00008b05e9000804440089844c000a44740002
:100a10000978a3000d003a000b00e0000700340045
:100a20008b05e9000804440089844c0001003a0069
:100a30000b0020000978a300f7ff32000001eb0053
:100a400002003700828171000a01780070000700ff
:100a50000cf0a70001f0a000b90037006420e1000d
:100a600002003a00838f6c00b90033000801be0019
:100a70000200be00b2003700889fbe008a9fbe0001
:100a80008c1f78009d000700a400330003866c00d3
:100a90006450e1002e0032006420e1003300320097
:100aa0006150e1002f0032006120e100310032008e
:100ab00085855500eb07b0000900200008042000e0
:100ac000050037000804440089844c000a00310006
:100ad0000603430087834b000001530081815b00c4
:100ae000f8ff33000203be000800a0000804440021
:100af00089844c00f6ff3900c639dd00830173009c
:100b000001003200130020008904d1000884d300c2
:100b10000998a300050032000800a7000300a00008
:100b20008904d1000884d3008b05e8008904d10032
:100b30000884d3000001eb000281d20034000700da
:100b400001f0a1000cf0a70001f0a0007c0037002c
:100b50006420e1007e0032000801be000200be00f9
:100b6000f7ff37006120e100790032006000b80033
:100b7000f3ff37000000200001f82700f0ff3700e6
:100b80000001be00480007000470a70003f0a100a8
:100b90006509b100160032000d0035006828e1003b
:100ba00006003500f0ff2f00f1ff27000300e000f2
:100bb00013003b0001002800000005000000400079
:100bc000818048008502e900fcff3a0008003700f8
:100bd000f88f420002003c008000eb00000005009e
:100be0008100d1000080d3008502e800fcff3a00bc
:100bf0000300e00002003b0060001000e0801800ed
:100c0000000006004f89de0082017800bc0037003a
:100c100081002000618055000b003d000b0020008a
:100c200061fe2f000100e1001d003400828171008f
:100c3000610164008904d1000884d3000000e80049
:100c4000faff3a00710020006100640003007000a8
:100c5000020060000900320061044400e0844c009e
:100c60000988a500050032008b05e8006808e1004e
:100c700002003a008904d1000884d300f20f20005a
:100c80000258e10005003d00c75ddd00f907b20034
:100c90008980750008007800000006000bf8270026
:100ca0008b00780000000500c70ade00f107b200e3
:100cb000f50fb20008003200e1cf4200020032001e
:100cc0000170a00024000500810f700001003200b7
:100cd0000408050044000500810f700002003a007e
:100ce000140005008502e9000000400081c04800b2
:100cf000fcff3b000170a000240005000004be00c2
:100d0000e9ff07000003be000405be000200be00ac
:100d1000e5ff0700844f7500000006000200be00da
:100d20006450e100050036006420e1000200360056
:100d30000968a30001003a000800be000160a0009d
:100d40004f0678004f05be004f04be0000000600ad
:100d5000f0ff2f00f1ff2700f9ff3700889fbe004a
:100d60008a9fbe008c1f7800e4ff0700ebff330072
:100d700003866c006450e100240032006420e1002e
:100d8000270032006150e100220032006120e100c2
:100d9000210032008b854200eb07b1000134b8001e
:100da000003ab8000804420089844a00013ab800b9
:100db0000030b8008880400009014a000400330078
:100dc0000000400081804800020149008b05e900d5
:100dd000c909dd008301700001003200130020000a
:100de000c814de004814dd004709de001200b2001e
:100df000c808de000884700085ff070001f0a1002c
:100e00000cf0a70001f0a000cdff37006120e10049
:100e1000cfff32000801be000200be00f7ff37001e
:100e20006150e100fcff3a00c9ff3700889fbe0017
:100e30008a9fbe008c1f78000004be009aff070046
:100e40000478a30026003a006120e100250032006a
:100e500009f8a30025003a006420e10021003200d7
:100e6000f507b1000508a3000200320000004000b1
:100e7000818048006044b800031020000200200078
:100e800000004000818048000805440089854c002e
:100e90000a0541008b8549000a0550008b855800e2
:100ea000030033000a00be0002047400838474004f
:100eb0008301d1000281d300830f7100f0ff3a005b
:100ec0008904d1000884d3006001490082017800c0
:100ed000c1adde00fb07b0004dff070098ff3700f3
:100ee0000960a0000800be0095ff37001202200034
:100ef00032468800f0ff2f00f1ff270090ff3700f7
:100f0000881f7800030478000300e00007003d001c
:100f100060001000e080180060011900e0811900f5
:100f200002003b0001f02d00030037000400070021
:100f300008f0a70001f0a0004f04780000000600b0
:100f4000889fbe008a9fbe0000827000040271006c
:100f500004827100260032000004be000200be00c0
:100f60006011b8006b092000950220000182cf00bb
:100f70000a0039000541b1000082cf0007003900a6
:100f80000541b1000982cf00040039000541b100dc
:100f90000882cf00010039000541b100054252002e
:100fa000120032000a003b0082817100610164007e
:100fb0008100d1000080d3008984d3000884d3004d
:100fc0008b05e8000442e800f7ff3a00070037000d
:100fd0000804440089844c000000480081804800d7
:100fe0008b05e9000442e900f9ff3a0008ff070019
:100ff0004f05be004f04be000000060080017800cf
:1010000002003700b15978000201e9000200e00057
:10101000fcff3a0000000600800178000200370063
:10102000815978000201e9000200e000fcff3a006b
:0410300000000600b6
:020000040000fa
:10103400120100000002000002000000000800008d
:10104400d80400000a0000000001000001020000b2
:101054000301000009020000430000000201000037
:1010640000c000003209000004000000000100007c
:10107400020200000100000005240000001000002e
:101084000104000024020000020500002406000000
:101094000001000005240000010000000107000019
:1010a40005810000030a000000020000090400009a
:1010b40001000000020a0000000000000007000018
:1010c40005020000024000000000000007050000c7
:1010d4008202000040000000000000000403000041
:1010e4000904000028030000590000004900000022
:1010f4004c000000440000004900000052000000c1
:10110400490000004d0000002000000045000000e0
:101114004c000000450000004b000000540000009b
:10112400520000004f0000004e0000004900000083
:101134004b00000022030000490000006e00000084
:1011440074000000650000007200000066000000ea
:101154006100000063000000650000002000000042
:1011640044000000650000007600000069000000f3
:1011740063000000650000000a0300007600000020
:10118400300000002e000000360000002c88000013
:1011940070880000748800009c880000be880000ed
:020000040000fa
:1011a4000200fa009ec0a900e8e2a8000080eb005b
:1011b400702488000080eb0050248800aa24ef00eb
:1011c400420020008000eb00c04a200091ff07008d
:1011d4002000200030258800a824ef008644a900c0
:1011e400f009200080248800f00920006024880091
:1011f40082c4a8008804a800006021004800de0022
:10120400c02488000040eb00004f7800070037003e
:101214001e80fb00c200dd00006021000081400050
:101224006000b8000089be001e4fe8001e40780030
:10123400eb4f5000f6ff36009424a8009624ef00ec
:1012440094a4a9009424a9008000200050248800bc
:10125400c05921008040eb0001487800205a210049
:101264008040eb0001487800305a2100904078001b
:10127400e0c0600001487800405a210090407800a6
:10128400e0c06000014878005024800068006000dd
:101294000000e000ecff3a0010c0b3008de8b70096
:1012a40010c0b3008ee8b7008f68ef009068ef00bd
:1012b4008768ef000040eb00004f7800150037000e
:1012c4001e80fb0080004000405921000080400047
:1012d4008000eb00010878001e80fb0080004000c5
:1012e400e0582100008040008000eb0001087800f5
:1012f4001e80fb00715a21000041eb0082707800cf
:101304001e80fb00a15a21000041eb00827078008e
:101314001e4fe8001e407800e24f5000e8ff360000
:1013240080602100a0ac8800d000200050258800f7
:10133400d05a210010b088000060210081c0b300a1
:10134400014878001060210041c0b30001487800d2
:101354001060210010407800804078000174a000e3
:1013640010602100014878007c68ef009228ef00ab
:101374009428ef009668ef007a28ef000080fa00c6
:10138400000006000200fa00d0438000e10f500084
:101394000b003a00a12480000004200000806000bb
:1013a4000000e00006003a000080eb0050248800b2
:1013b4008c04a8008c84a80020002000d04388005e
:1013c40000248000700060000000e000070032008c
:1013d40010248000700060000000e0000300320070
:1013e4000001200000248800bc0407004024800081
:1013f400620060000000e000020032008ec0a9001c
:10140400a100370050248000610060000000e0006b
:101414000a00320060248000610060000000e000e7
:10142400060032005eff07009ec0a80040002000b6
:10143400d0438800100020005024880050248000ed
:10144400700060000000e0000500320060248000ad
:10145400700060000000e000010032009204070008
:101464000124800000042000008060000000e000ef
:10147400030032000004200000248800ee06070068
:1014840050248000640060000000e000140032007a
:1014940060248000640060000000e000040032006a
:1014a400120020008000eb00300720000115070027
:1014b40040002000502488008bc8bf000004e000d6
:1014c400030032008bc8bf000040e9008be8b7007e
:1014d4008bc8bf000004e00001003a00a30107002c
:1014e4005124800000082000008060000000e0001b
:1014f40006003200612480000008200000806000a3
:101504000000e000010032004b040700502480007a
:10151400620060000000e0000c00320060248000e3
:10152400620060000000e0000800320012002000a9
:101534008000eb00f0ff2700de1407000080eb00c2
:10154400702488002000200050248800d0438000ac
:10155400e30f500002003e008ec0a9004a0037008d
:1015640060248000680060000000e0004500320054
:101574000040eb00004f78003d003700502480000d
:10158400680060000000e0003d003200902480000c
:101594000040780088e8b70088c8bf000080fb00de
:1015a4004400de000040780089e8b7008000200095
:1015b4005024880088c8bf00684060000004e00030
:1015c40011003a0089c8bf000081fb008080fb0045
:1015d400a05a2100008040009040780061c0600063
:1015e4000004a200e1406000a05a21000000410074
:1015f400e1c06000104178000204a1008140710044
:10160400014878001000370089c8bf000081fb0042
:101614008080fb00705a21000080400090407800d8
:1016240061c060000004a200e1406000705a210023
:1016340000004100e1c06000104178000204a100f4
:10164400814071000148780089c8bf000004e000af
:1016540002003a002d040700040037000001eb00eb
:101664008188200020072000921407001e4fe80004
:101674001e407800e34f5000c0ff360001003700e1
:10168400000000008ec0a9000080fa0000000600df
:101694000400fa0020479800314798003e4090002b
:1016a4000080fb00680060000000e00003003200de
:1016b4008040eb002e4090009b0107003e409000cc
:1016c4000080fb00640060000000e00003003200c2
:1016d40011c0b3002e40900093010700a14a2000de
:1016e4002e4090000080fb0000004000008f40006e
:1016f4001e007800be409000014878000080fa0087
:10170400000006000800fa002047980031479800be
:1017140022079800634798003e4090000004e000d0
:10172400070032002e4090000080fb008000400043
:101734004059210000804000100f78000600370057
:101744002e4090000080fb0080004000e058210003
:1017540000804000100f78001e0078000000e000b8
:1017640002003a000000eb0037003700ae009000a2
:101774001e007800110098001e007800ee409000d2
:10178400014878001e0078001040900002c4b300a5
:10179400824060001e007800114098001e0078000e
:1017a40010409000804078000134a0001e007800b2
:1017b400114098001e00780010409000804078008e
:1017c4000174a0001e007800114098003e40900073
:1017d4000004e0000e0032002e4090000080fb0068
:1017e400ae4090008180fb000181400041592100fe
:1017f40081004100910078000120a2000001400016
:101804004059210000004100010878000d00370014
:101814002e4090000080fb00ae4090008180fb00d1
:1018240001814000e15821008100410091007800cd
:101834000120a20000014000e05821000000410006
:10184400010878001e0078000080fa0000000600fd
:101854000400fa0020479800314798002e40900079
:101864000004e00017003a000044800081c0b30087
:101874000148780000448000d15a210011009800ea
:1018840000448000c1c0b3001140980000448000af
:1018940001448000914090000174a0001140980020
:1018a400a0ac800041c0b30011409800a0ac8000ff
:1018b400a1ac8000914090000174a00011409800f8
:1018c4002e0037002e4090000080fb0000004000f6
:1018d400800078003e4090000080fb0000804000c3
:1018e4004300dd008000780000602100008f40008c
:1018f4001e00780010409000804078000124a00071
:101904001e007800114098001e00780010409000de
:10191400804078000174a0001e00780011409800f7
:101924002e4090000080fb00000040008000780002
:101934003e4090000080fb00008040004300dd003a
:10194400e400400000602100008f40001e00780089
:1019540010409000804078000124a0001e00780010
:10196400114098001e0078001040900080407800dc
:101974000174a0001e007800114098000080fa0055
:10198400000006000200fa00004f7800a124800045
:1019940000022000008060000000e00051003200de
:1019a4001e80fb0080004000405921000080400060
:1019b400100278001e80fb00800040004059210086
:1019c40000804000100078001001be0000042000d8
:1019d4000100200082027800030178008001780071
:1019e4000100780083826200000061008000eb0047
:1019f400c000dd00000020000001be006128b80026
:101a04000001710081817100028abe001e80fb000a
:101a140080004000405921000080400010027800fe
:101a24001e80fb00800040004059210000804000df
:101a3400100078001001be00000420000100200006
:101a44000000690081806900008abe001e80fb00de
:101a54009e80fb000181400041592100810041002a
:101a6400910078000120a2000001400040592100ab
:101a740000004100010878001e80fb008000400047
:101a84004059210000804000900078001e80fb0037
:101a9400000140004059210000004100100078007e
:101aa400104090000044b200904098001e80fb005b
:101ab40080004000405921000080400090007800e0
:101ac4001e80fb000001400040592100000041003d
:101ad400100078001041900000c4b3000040690079
:101ae400904098000080fa00000006000000fa0010
:101af4009424ef008c24ef007a28ef000080fa0091
:101b0400000006000000fa00d04380000000e0005e
:101b140014003a009424ef008c24ef0020002000ed
:101b240030258800a824ef008644a900f00920008d
:101b340080248800f00920006024880082c4a80062
:101b44009ec0a800010037009404a800a0248000cf
:101b5400610060000000e000fbff32001000200084
:101b6400d04388000080fa00000006000000fa005c
:101b74008dc8bf000004a2000004e000340032005d
:101b840010c0b3008de8b7008ec8bf000004a200e7
:101b94000004e0002e00320010c0b3008ee8b7004d
:101ba40083c8bf00e24f50000c003a00a0ac800094
:101bb4008040eb0001487800a0ac800081c4b300f1
:101bc40011409800a0ac8000a1ac8000914090002e
:101bd4000174a000114098001d00370083c8bf00a5
:101be400e14f50001a003a008a68ef00f043800089
:101bf40081c0b30001487800f0438000d15a21002d
:101c040011009800f043800041c0b30011409800d7
:101c1400f0438000f1438000914090000174a000e3
:101c24001140980010c0b3008ae8b7000044800057
:101c340081c0b3000148780000448000d15a2100db
:101c4400110098000044800001c8b30011409800be
:101c54000080fa00000006000000fa008f68ef0020
:101c64009068ef0083c8bf00e24f50000f003a00b5
:101c74000044800081c0b300014878000044800023
:101c8400515b2100110098000044800081c4b3001e
:101c9400114098000044800001448000914090006d
:101ca4000174a000114098001d003700305b210032
:101cb4001080fb00415b21009180fb00c808dd001f
:101cc4000100700080007800f0ac8000808f50002c
:101cd40007003100305b21001080fb00415b2100d4
:101ce4009180fb00c808dd0001007000f0ac8800a2
:101cf40096000700a0ac8000515b21001100980001
:101d0400a0ac800081c4b30011409800a0ac800056
:101d1400a1ac8000914090000174a0001140980093
:101d24000080fa00000006000400fa002047980032
:101d34003147980000602100000f78002e40900089
:101d44000080fb0000004000800078003e409000ce
:101d54000080fb00008040004300dd001e0f4000b7
:101d64001e0078009000780001f0a10001087800be
:101d74003e4090000004e00007003a002e4090002e
:101d84000080fb0080004000e058210000804000fb
:101d94001e087800060037002e4090000080fb00eb
:101da4008000400040592100008040001e08780057
:101db4001e0078009000780001e0a100010878007e
:101dc4009e007800648040009000780001e0a0004c
:101dd400010878000080fa00000006000000fa0004
:101de40094a4a900e1ac80000008200000806000f9
:101df4000000e00027003a00205a210090407800bb
:101e040000c8b30000c060000004e0000a00320013
:101e140020c0b30083e8b70090c8bf000004a2004c
:101e24000004e000010032008bff07008e68ef0021
:101e34008d68ef00430037000044800081c0b30088
:101e44000148780000448000d15a21001100980014
:101e540000448000c1c0b3001140980000448000d9
:101e640001448000914090000174a000114098004a
:101e7400a0ac800041c0b30011409800a0ac800029
:101e8400a1ac8000914090000174a0001140980022
:101e94002c003700d05a21009040780000c8b300cd
:101ea40000c060000004e0000f00320010c0b30066
:101eb40083e8b7008fc8bf000004a2000004e0005c
:101ec4000100320064ff07008e68ef008d68ef00a8
:101ed4008cc8bf000004a2000004e0001900320016
:101ee40022ff07001700370020c0b30083e8b700c3
:101ef4000044800081c0b3000148780000448000a1
:101f0400d15a2100110098000044800041c0b30060
:101f140011409800004480000144800091409000ea
:101f24000174a000114098008e68ef008d68ef00e6
:101f34008cc8bf000004a2000004e00001003200cd
:101f44000aff07000080fa00000006000200fa0001
:101f540080c0b300004f7800f0ac8000e70f500061
:101f64000d003e00f0ac8000004f780082c8bf0036
:101f74000004e00003003a0010c0b30082e8b70098
:101f84000500370082c8bf00e14f500002003a004c
:101f940020c0b30082e8b700f1ac80001e80fb00d3
:101fa40000805000f0ac8800a0ac80001e4878008f
:101fb400505b210020448800e0ac80006100600098
:101fc4000000e00017003a000900370021448000b7
:101fd400d0ac800010417800824878008100e8008d
:101fe400214488000000e800d0ac88001e4fe900be
:101ff4001e4078000004e000f4ff3a000c003700b3
:1020040021448000d0ac80001041780082487800e0
:102014008100e800214488000000e800d0ac88007a
:102024001e4fe9001e4078000004e000f4ff3a006f
:102034000080fa00000006000200fa00f04380006d
:10204400104f78009e80fb00305a21001080fb0066
:10205400425a21001281fb004811dd000200700089
:10206400808f500007003600305a21001080fb009a
:10207400415a21009180fb00c808dd000100700076
:10208400004f7800305a21001080fb00415a210093
:102094009180fb00c808dd0001007000800078001a
:1020a4001e80fb0000805000f10f20000101600041
:1020b400315a210091417800e0c1610002c17100f0
:1020c40082487800c800de00405a210010417800a0
:1020d4006041610081407100014878000040eb00dc
:1020e400104798001c003700005a21001080fb00a4
:1020f400115a21009180fb00c808dd000100700026
:102104009e4090008180fb00525b2100e2c0780079
:10211400014878000000e800f10f20000101600090
:10212400015a210091417800e0c1610002c17100af
:1021340082487800c800de00105a2100104178005f
:102144006041610081407100014878001e409000a8
:102154000040e800104798001e4090009e4f500039
:10216400e1ff3900305a21001080fb00415a210060
:102174009180fb00c808dd00010070000000e00051
:102184001e0032000044800081c0b3000148780082
:1021940000448000515b210011009800f04380004e
:1021a4009000780000002400008060000000e0003f
:1021b40009003a000044800081c4b3001140980033
:1021c4000044800001448000914090000174a0000c
:1021d400114098002f0037000044800081c0b300f4
:1021e4001140980000448000014480009140900018
:1021f4000174a000114098002600370000448000bc
:1022040081c0b3000148780000448000d15a210005
:10221400110098000044800041c0b30011409800b0
:102224000044800001448000914090000174a000ab
:1022340011409800505a21001080fb00615a21007f
:102244009180fb00c808dd00010070000000e00080
:1022540007003200505a21001080fb00615a21000f
:102264009180fb00c808dd0001007000000001003f
:10227400205a2100904078000174a10001487800a0
:102284008cc8bf000004a2000004e000010032007a
:1022940036fe07000080fa00000006000200fa0083
:1022a400e0ac80000070a000e0ac88004200200098
:1022b4008000eb00c04a200056fb07000203200008
:1022c4008000eb000060210052fb07009424a8006a
:1022d4000040eb00004f7800090037001e80fb002f
:1022e400715a21000041eb00827078001e80fb00cf
:1022f400a15a21000041eb00827078001e4fe800d3
:102304001e407800e24f5000f4ff36002200200007
:102314008000eb00c05821003efb07009424a90074
:1023240080602100a0ac880000602100f043880098
:10233400f043800000448800f05a210010407800e7
:102344007ce8b7007cc8bf000004e00003003a004a
:1023540000012000d043880006003700120020004e
:10236400c187200010002000521107000002200045
:10237400d04388000080fa00000006000000fa0044
:10238400d05a21009040780000c8b30080cf50009c
:1023940047003a00c059210001ccb300014878003d
:1023a400005b2100104078000080fb00e20f500029
:1023b40009003200e30f500023003200e10f500007
:1023c40037003a00a0812800d0ac8800200120000a
:1023d400f0ac880036003700f05a21001040780035
:1023e4000004e00014003a00f05a21001040780084
:1023f4000080fb000000400080007800808c2800f2
:102404000080400010007800d0ac8800d0ac800080
:102414000080e80090407800e059210001487800ed
:10242400d0ac80006300400090407800f059210057
:10243400014878001e003700c05921008040eb009d
:10244400014878001a003700f05a21001040780043
:10245400e34f50000e003e00f05a21001040780077
:102464000080fb000000400080007800a08c280061
:102474000080400010007800d0ac8800d0ac800010
:10248400104078000080fb00f0ac880008003700a2
:10249400c05921008040eb00014878000400370057
:1024a400c05921008040eb00014878000000000082
:1024b4000080fa00000006000200fa00505b2100d0
:1024c4008040eb0001487800605b21008040eb0015
:1024d40001487800d05a2100904078007fc0600005
:1024e4000080fb00e10f500011003200e20f5000a9
:1024f400130032000000e00040003a00e0ac80002d
:102504000070a000e0ac880086c8bf000004e000b2
:1025140035003200505b2100104078008040780084
:102524000114a000505b21000148780033003700fb
:10253400e0ac80000070a000e0ac88002f00370001
:10254400e0ac80000070a000e0ac8800105b2100cb
:102554009040780000c8b30000c060000004e000b0
:1025640009003a00105b2100904078006fc06000c1
:102574000080fb0080004000e05821000080400003
:10258400100f780008003700105b2100904078009d
:102594006fc060000080fb008000400040592100b3
:1025a40000804000100f78001e0078009000780032
:1025b40000002800008060000000e0000c003200f1
:1025c4001e00780090007800004020000080600029
:1025d4000000e00008003200505b210011c0b3008d
:1025e40001487800050037000000000003003700b0
:1025f400000000000100370000000000e1ac800092
:1026040000082000008060000000e00008003200a4
:10261400505b2100d0ac8800e0ac80000000a0003a
:10262400e0ac8800e059210021c0b30001487800e3
:102634000080fa00000006000000fa005025800027
:10264400620060000000e00013003200f0438000ec
:102654009040900000c8b30080cf50000d003a00b5
:10266400a0ac80009040900040c8b30080cf5000e0
:1026740008003a00f0438000c1c0b3001140980044
:10268400f0438000f1438000914090000174a00069
:1026940011409800aa24a9000008200050248800b2
:1026a4000080fa00000006000000fa008284a800fe
:1026b400000120005024880010c0b30087e8b70050
:1026c4009668ef000001eb008000eb00500720004b
:1026d400781007000080fa00000006000000fa00ed
:1026e4008768ef000001eb008000eb00400720004a
:1026f400701007008284a9000001200000248800d3
:102704009668ef000080fa00000006000000fa005e
:10271400d0c2b3008be8b70088c8bf000080fb00bc
:102724000020a1000000e0001f003a0088c8bf009c
:102734000080fb004200de00004078000080fb00c7
:10274400c200dd000060210000804000f0438800ea
:10275400f043800000448800004480000020a20070
:1027640000448800f04380009000780000c02300fb
:102774008080600000402300808f500008003a00f1
:10278400f043800010009000820020008000780058
:10279400d05a210018fa07000b0007000800370080
:1027a4003d0007000600370088c8bf000080fb001a
:1027b4000020a100e80f500001003a005300070078
:1027c4000080fa00000006000000fa008268ef00b2
:1027d4008c68ef008f68ef009068ef008a68ef0064
:1027e4008368ef00a0ac8000a1ac80009140900011
:1027f4000174a10011409800a0ac80000020a20048
:10280400a0ac8800a0ac8000a1ac800091409000f6
:102814000174a10011409800a0ac80000020a20027
:10282400a0ac8800004480000144800091409000e6
:102834000174a10011409800c05921008040eb00b0
:10284400014878000000eb00f0ac8800205a210019
:102854008040eb0001487800305a21009040780015
:10286400e0c0600001487800405a210090407800a0
:10287400e0c0600001487800820007000001eb001e
:102884008000eb00300020000a10070053fd070011
:102894000080fa00000006000000fa0083c8bf00b0
:1028a400e24f500002003a00e3fd07001500370034
:1028b4008368ef008ac8bf000004a2000004e0009f
:1028c4000f0032000044800081c0b300014878004a
:1028d40000448000d15a2100110098000044800077
:1028e400c1c0b3001140980000448000014480003e
:1028f400914090000174a00011409800010037003d
:102904008a68ef000080fa00000006000200fa0066
:10291400a0ac8000100078004e00de006140600032
:10292400004f7800a0ac80000020a200a0ac88007a
:10293400d0438000e80f50000e003a00f05a210006
:10294400104078008080fb00f007200000806000c9
:10295400b0248800b02480000000e00003003200ae
:1029640000012000d043880002003700400020000e
:10297400d043880083c8bf00e14f500025003a00cf
:10298400a0ac8000515b2100110098006ffd07008e
:1029940082c8bf00e24f500009003a00a0ac80009a
:1029a40041c0b30011409800a0ac8000a1ac8000ed
:1029b400914090000174a000114098002f0037004e
:1029c4001e4078000004e00009003a00a0ac80003a
:1029d40081c4b30011409800a0ac8000a1ac800079
:1029e400914090000174a00011409800230037002a
:1029f400a0ac800081c0b30011409800a0ac80005e
:102a0400a1ac8000914090000174a0001140980096
:102a14001a003700205a21009040780000c8b30003
:102a240000c060000004e00013003200505a21008e
:102a34001080fb00615a21009180fb00c808dd0072
:102a4400010070000000e00007003200505a21002d
:102a54001080fb00615a21009180fb00c808dd0052
:102a64000100700000000100205a2100904078000d
:102a74000174a100014878008368ef000080fa0027
:102a8400000006000000fa00d05a2100104078002f
:102a94000046b2000004e00050003a00e05a210071
:102aa400104078000080fb00cf80de00b2002000e0
:102ab40003002000820f5000838f580049003e001d
:102ac4000060010021003700220037004700370072
:102ad4002000370045003700060037000b003700a0
:102ae400390037000d0037000a0037001b0037009b
:102af4002a003700e0ac80000070a000e0ac880041
:102b040080002000d0438800390037001bfe0700f6
:102b140037003700e1fd070035003700c08720008b
:102b2400d0ac8800e0ac80000000a000e0ac8800dd
:102b3400e059210011c0b30001487800e0ac8000e6
:102b44000070a000e0ac8800290037005afe07009e
:102b5400270037002800070025003700105b2100fc
:102b6400104078008080fb00c058210000804000a5
:102b7400d0ac8800e0ac80000000a000e0ac88008d
:102b8400e059210011c0b30001487800e0ac800096
:102b94000070a000e0ac880015003700e0ac8000b5
:102ba4000070a000e0ac8800105b210010407800a9
:102bb4000080fb00f15a210011417800c158210026
:102bc400827078000a0037000001eb008000eb00ff
:102bd40020002000370f0700050037000000000028
:102be400030037000000000001003700000000006f
:102bf4000080fa00000006000600fa00f05a2100e6
:102c040010407800e14f500010003a00d05a2100e3
:102c1400104078007f4060000004e0000b003a00a0
:102c2400e0ac80000070a000e0ac8800e05a210015
:102c340010407800e34f500003003a0010c0b30086
:102c440086e8b700010037008668ef00f05a2100db
:102c5400104078000004e000f5003a00d05a21004a
:102c6400104078007f406000e24f5000f0003a00ce
:102c7400105b2100104078006f4060000004e00009
:102c8400eb003200105b2100904078006fc06000c0
:102c94000080fb00e20f5000e5003c00d1438000bf
:102ca40000022000808f5000e1003a00e0ac800078
:102cb4000070a000e0ac8800105b21009040780018
:102cc40000c8b30000c060000004e00010003a0037
:102cd400105b2100104178006f4061000080fb0010
:102ce40080004000e058210000804000100f780070
:102cf400105b2100904078006fc060000080fb00f2
:102d0400a15a210061407800404798000f00370025
:102d1400105b2100104178006f4061000080fb00cf
:102d2400800040004059210000804000100f7800ce
:102d3400105b2100904078006fc060000080fb00b1
:102d4400715a210061407800404798004e4090003d
:102d5400614060000004e00004003a001e007800b6
:102d64000020a100000f7800030037001e00780047
:102d74000020a000000f7800105b21009040780034
:102d840000c8b30000c060000004e0000a003a007c
:102d9400105b2100104178006f4061000080fb004f
:102da4009e00780000014000e0582100000041002e
:102db4000108780009003700105b2100904078007a
:102dc4006fc060000080fb009e007800000140009e
:102dd400405921000000410001087800e05a210018
:102de40010407800e34f50002c003a001e00780099
:102df4009000780000002800008060000000e000df
:102e040019003200105b21009040780000c8b30024
:102e140000c060000004e0000a003a00105b2100da
:102e2400104178006f4061008080fb00a05a2100af
:102e340000804000904078000114a0000148780010
:102e440009003700105b2100904078006fc06000db
:102e54008080fb00705a2100008040009040780080
:102e64000114a000014878001e0078001040900072
:102e7400804078000124a0001e00780011409800d2
:102e84001e00780010409000804078000174a0007b
:102e94001e00780011409800650037001e0078007d
:102ea4000020a200000f78001e0078009000780037
:102eb40000002800008060000000e00011003200e3
:102ec4001e00780010409000804078000174a1003a
:102ed4001e007800114098001e00780010409000f9
:102ee400804078000164a0001e0078001140980022
:102ef400220020009e007800500020006d0e070084
:102f0400060037001e0078001040900080407800d2
:102f14000164a0001e007800114098001e00780093
:102f24000020a200000f78004e4090006240600034
:102f34000004e00006003a001e00780090007800cb
:102f440000002800008060000000e000240032003f
:102f5400105b21009040780000c8b30000c06000fe
:102f64000004e0000a003a00105b210010417800e0
:102f74006f4061008080fb00a05a21000080400067
:102f8400904078000114a10001487800090037003e
:102f9400105b2100904078006fc060008080fb00cf
:102fa400705a210000804000904078000114a10074
:102fb400014878001e00780010409000b2c3b300ae
:102fc400824060001e00780011409800220020001a
:102fd4009e00780050002000360e070006003700df
:102fe4001e00780010409000b2c3b300824060001d
:102ff4001e00780011409800a14a2000105b2100b7
:10300400104178006f4061000080fb000000400028
:1030140000804000100798001e00900010407800c7
:10302400804078000114a1001e009000014878003f
:103034000080fa00000006000000fa0090448000be
:10304400a144800061004000e08048009044880072
:10305400a144880087c8bf000004a2000004e00067
:103064000800320096c8bf000040e80096e8b700a8
:1030740096c8bf000004e00002003a0000c0eb0064
:1030840096e8b7000080fa00000006000400fa0089
:1030940092448000a3448000028fbe0090448000cc
:1030a400a14480001e01be00800f5100818f590091
:1030b400f7ff3a001e00be000080fa000000060080
:1030c4000000fa00610e0700cce2a800010007002e
:1030d400feff37000400fa00d0438000ff0f5000c9
:1030e400ae00360040248000620060000000e00072
:1030f400ac003a0099c8bf000004e000a5003a0003
:103104000040eb00004f78000040eb0010479800af
:103114000040eb002047980001c8b300203f210085
:103124001a0a0700304798003e409000e54f5000cf
:1031340098003a0080872000b0438800d09f800028
:10314400e10f500004003a00b043800011c0b30006
:103154000148780003003700b04380008040eb0052
:10316400014878000040eb00004f7800160037005b
:10317400919f80001e80fb000008de00610060005b
:10318400004078000004e0000e0032001e40900071
:103194000080fb009e80fb0001814000c13d2100b6
:1031a4008100410091007800000140002047210087
:1031b40000004100010878001e4090000040e80033
:1031c400104798001e4fe8001e407800e74f50005b
:1031d400e7ff36000040eb00204798001a00370054
:1031e400a19f80002e4090000080fb000008de00bc
:1031f40061006000004078000004e0000f0032002d
:103204001e4090000080fb009e80fb000181400076
:10321400c13d21008100410091007800000140007f
:103224002047210000004100010878001e40900062
:103234000040e800104798001e4fe8002e40900020
:103244000040e800204798002e409000e24f5000d4
:10325400e3ff3600b09f80004200dd001c0e070033
:10326400c09f80004200dd000c0e0700a09f80007c
:103274004400de000040780061406000614060006e
:10328400614060000080fb00610060004200dd00de
:10329400611680000120a100010070006016880002
:1032a400a09f80004500de0000407800614060007f
:1032b40061406000614060000080fb0061006000cc
:1032c4004300dd00611680000130a10001007000a0
:1032d40060168800a09f80004600de000040780051
:1032e4006140600061406000614060000080fb005c
:1032f400610060004400dd00611680000140a1000f
:103304000100700060168800a09f80004700de0066
:1033140000407800614060006140600061406000ee
:103324000080fb00610060004500dd006116800044
:103334000150a10001007000601688001e4090003a
:103344000004e00008003a000000eb0090a38800ad
:103354000000eb00a0a3880011c0b30020472100a7
:10336400bd0907000b0037001e40900000404000dc
:103374008040780020472100b70907000040eb0097
:10338400004f78000040eb00104798000040eb002d
:1033940020479800140a07000300370000000000cb
:1033a40001003700000000000080fa000000060061
:1033b4000000fa00c08d200090020700eff507001e
:1033c40000007800a0408800c09d20008b02070008
:1033d400eaf5070000007800b0408800c0ad200086
:1033e40086020700e5f5070000007800c040880069
:1033f400c0bd200081020700e0f50700000078004e
:10340400d0408800c0cd20007c020700dbf5070017
:1034140000007800e0408800c0dd2000770207004b
:10342400d6f5070000007800f0408800c0ed2000c9
:1034340072020700d1f507000000780000418800ff
:10344400c0fd20006d020700ccf5070000007800e5
:1034540010418800c00d210068020700c7f507006d
:103464000000780020418800c01d2100630207008d
:10347400c2f507000000780030418800b0438000a6
:10348400104078000004a2000004e0003300320081
:10349400a040800080007800c08d20003401070027
:1034a400e09e8800b040800080007800c09d20002d
:1034b4002f010700f09e8800c04080008000780043
:1034c400c0ad20002a010700009f8800d040800082
:1034d40080007800c0bd200025010700109f8800ef
:1034e400e040800080007800c0cd2000200107006b
:1034f400209f8800f040800080007800c0dd20001c
:103504001b010700309f8800004180008000780084
:10351400c0ed200016010700409f88001041800084
:1035240080007800c0fd200011010700509f880032
:103534002041800080007800c00d21000c010700ac
:10354400609f88003041800080007800c01d210009
:1035540007010700709f880032003700a0408000f8
:1035640080007800c08d200030000700e09e8800b5
:10357400b040800080007800c09d20002b00070030
:10358400f09e8800c040800080007800c0ad20001c
:1035940026000700009f8800d0408000800078004b
:1035a400c0bd200021000700109f8800e04080007b
:1035b40080007800c0cd20001c000700209f8800f8
:1035c400f040800080007800c0dd20001700070074
:1035d400309f88000041800080007800c0ed20000a
:1035e40012000700409f880010418000800078008e
:1035f400c0fd20000d000700509f8800204180007e
:1036040080007800c00d210008000700609f88003a
:103614003041800080007800c01d210003000700b5
:10362400709f88000080fa00000006000400fa0081
:10363400889fbe008a9fbe00000f78001107980083
:1036440030002000b04288001f003700b0428000e4
:10365400000040001e004000900078001e00900012
:10366400808f500015003c00b04280000000e8004c
:10367400000040001e004000900078001e009000f2
:10368400808f50000d003400b04280000000e00044
:103694000a003200b0428000004088006000b80098
:1036a400d0428800e1428800b04280000000e80077
:1036b400b04288000000000020003700b0428000c3
:1036c4000000e800b0428800b1428000e00720001a
:1036d400808f5000ddff340018003700b0428000b6
:1036e400000040001e004000900078001e00900082
:1036f400808f50000e003c00b04280000000e800c3
:10370400000040001e004000900078001e00900061
:10371400808f500006003400b04280000000e000ba
:1037240003003200b04280001040880007003700d8
:10373400b04280000000e800b0428800b14280003e
:10374400e0072000808f5000e4ff340010002000c8
:10375400c04288001e00370090438000cf80de0006
:1037640027f507000004be0001408000c04280002d
:1037740000804000000040001e004000100078005f
:10378400cf80de001ef507000005be00114080005a
:103794000040800000805000cf80de0018f5070054
:1037a4000001be000a00be00b2f407000001be0022
:1037b4000800be0052f40700f0f40700000078008f
:1037c40090438800c04280000000e800c0428800a6
:1037d400114080000040800080805000c042800082
:1037e400808f5000dcff3d0090438000a0438800a0
:1037f40010002000c04288002900370001408000ea
:10380400c042800000804000000040001e004000d4
:1038140090007800a043800000805000cf80de003c
:10382400f7f40700020020000312240091f40700bb
:103834000004be0001408000c042800000804000bf
:10384400000040001e00400090007800a04380006b
:1038540000805000cf80de00e9f407000200200061
:103864000312240083f407000001be000800be0018
:1038740039f507000002be00d0428000e14280001a
:103884000001be000400be001df40700d042880001
:10389400e1428800c04280000000e800c042880085
:1038a400114080000040800080805000c0428000b1
:1038b400808f5000d1ff3d00d8428000e942800053
:1038c400114080000040800000805000cf80de0066
:1038d400cbf407000001be000800be0065f4070039
:1038e4005043880061438800504380006143800056
:1038f4004df50700020020000312240016f507000e
:103904000004be0020468000cf80de00bcf4070027
:103914000001be000800be00f9f307000200200009
:1039240003122400f6f3070094f407000000780063
:10393400cf80de00b2f40700f04288000143880023
:103944007228ef006000b800d0428800e14288008d
:10395400f04280000143800088f4070000007800f2
:103964004f05be004f04be000080fa0000000600b0
:103974000400fa00889fbe00000f78001107980029
:1039840030002000b04288001f003700b0428000a1
:10399400000040001e004000900078001e009000cf
:1039a400808f500015003c00b04280000000e80009
:1039b400000040001e004000900078001e009000af
:1039c400808f50000d003400b04280000000e00001
:1039d4000a003200b0428000004088006000b80055
:1039e400d0428800e1428800b04280000000e80034
:1039f400b04288000000000020003700b042800080
:103a04000000e800b0428800b1428000e0072000d6
:103a1400808f5000ddff340018003700b042800072
:103a2400000040001e004000900078001e0090003e
:103a3400808f50000e003c00b04280000000e8007f
:103a4400000040001e004000900078001e0090001e
:103a5400808f500006003400b04280000000e00077
:103a640003003200b0428000104088000700370095
:103a7400b04280000000e800b0428800b1428000fb
:103a8400e0072000808f5000e4ff34001000200085
:103a9400c04288001800370090438000cf80de00c9
:103aa40057f407000004be0001408000c0428000bb
:103ab40000804000000040001e004000100078001c
:103ac400cf80de004ef40700020020000312240021
:103ad400e8f307000001be000800be0088f30700f9
:103ae40026f407000000780090438800c04280005c
:103af4000000e800c04288001140800000408000bf
:103b040080805000c0428000808f5000e2ff3d0062
:103b140090438000cf80de0039f407000004be002b
:103b2400114080000040800000805000cf80de0003
:103b340033f407000001be000800be00cdf3070007
:103b4400020020000312240083f407000bf4070092
:103b5400000078009043880090438000a0438800d0
:103b64007228ef00a04380004f04be000080fa00da
:103b7400000006000600fa00200798000000eb0091
:103b8400000f78000000eb00100798000000eb0025
:103b9400000f7800120037002e009000900078008b
:103ba400110798001e00780000004000ae0090004d
:103bb40000804000900078001e009000808f50002c
:103bc40006003d001e00780000004000ae0090009a
:103bd4000080400090007800110798001e0fe80054
:103be400f00720009e007800808f5000eaff340028
:103bf4000080fa00000006000000fa00c02d210039
:103c040013000700c02d210055000700dbf3070057
:103c1400000078004041880040418000809f880077
:103c240040418000cf80de00f5f3070072932f003f
:103c34002385230048f407000001be0030f3070089
:103c440090428800a14288000080fa00000006002b
:103c54000600fa002007980010002000000f7800ea
:103c64001f0037000000eb00100798001700370012
:103c74001e00900000004000ae0090000080400054
:103c8400900078001e0090000000e8000000400052
:103c94002e0190000000410010007800808f500039
:103ca40007003400e3e721001e0090000000e80054
:103cb4002e019000800078001e0090000300010097
:103cc4001e0090000000e800100798009e0090007d
:103cd400e0072000808f5000e5ff34001e0fe8004d
:103ce400000820009e007800808f5000ddff340023
:103cf4000080fa00000006000800fa00100798008f
:103d040021079800320798001e0090000000400030
:103d1400be00900000804000100f78001e0090004c
:103d240000004000be009000808040002e00900003
:103d3400000040003e0190000000410010007800a7
:103d4400800878002e00900000004000be00900023
:103d5400008040001e0878000080fa000000060081
:103d64000400fa00100798006000b80020408800a2
:103d74003140880000022000000f78001000370056
:103d84001e007800000040009e009000008040006b
:103d940010007800cf80de0099f307000002be0017
:103da40020408000314080000001be000400be00bd
:103db400d3f2070020408800314088001e0fe8003d
:103dc400f00520009e007800808f5000ecff340046
:103dd400204080003140800002002000032824009d
:103de40024f3070040408800514088004040800090
:103df400514080000080fa00000006000400fa0030
:103e0400100798006000b800604088007140880086
:103e14000000eb00000f7800100037001e0078004f
:103e2400000040009e0090000080400010007800d8
:103e3400cf80de0072f307000002be006040800005
:103e4400714080000001be000400be00acf2070017
:103e540060408800714088001e0fe800f0072000d1
:103e64009e007800808f5000ecff3400604080009a
:103e7400714080000200200003302400fdf207009e
:103e840080408800914088008040800091408000fc
:103e94000080fa00000006000000fa000000eb00b9
:103ea4000080fa00000006000000fa001000200064
:103eb400001c88000080eb00301c8800008020007b
:103ec400201c8800c0352000401c880000f022001f
:103ed400501c880000342000601c8800808c200066
:103ee400701c8800a0002000801c88008480a90029
:103ef4009480a800c0312000901c880000f02300aa
:103f0400a01c8800604d2000b01c8800c02d21003a
:103f1400c01c880000082000d01c880085c0a900af
:103f240095c0a800a623ef00a823ef00aa23ef0062
:103f3400ac23ef00ae23ef008880a900b023ef008c
:103f4400b223ef00b423ef00b623ef00b823ef0051
:103f540089c0a900ba23ef00bc23ef00be23ef0001
:103f6400c023ef00c223ef008ba0a90081e3a800c7
:103f74008803a8009203a8009c03a8000080fa000c
:103f8400000006000200fa00000f78001e0078000e
:103f9400e20f500012003200e20f500005003e0014
:103fa4000000e0000a003200e10f50000a00320075
:103fb40013003700e40f50000d003200e40f5000ee
:103fc40009003900e50f50000b0032000c003700e7
:103fd4008803a8000a0037009203a80008003700ed
:103fe4009c03a80006003700a603a80004003700bd
:103ff400b003a80002003700ba03a80000000000c4
:104004000080fa00000006000200fa00000f7800a9
:104014001e007800e20f500012003200e20f500040
:1040240005003e000000e0000a003200e10f5000ed
:104034000a00320013003700e40f50000d00320074
:10404400e40f500009003900e50f50000b00320066
:104054000c0037008803a9000a0037009203a90066
:10406400080037009c03a90006003700a603a90036
:1040740004003700b003a90002003700ba03a90006
:10408400000000000080fa00000006000400fa00ae
:10409400000f7800110798001e007800e20f50000e
:1040a40014003200e20f500005003e000000e00062
:1040b4000a003200e10f50000b00320019003700f3
:1040c400e40f500011003200e40f50000c003900de
:1040d400e50f500010003200120037009e009000df
:1040e400811c88000f0037009e009000d11c8800be
:1040f4000c0037009e009000211d88000900370045
:104104009e009000711d8800060037009e009000fc
:10411400c11d8800030037009e009000111e880016
:10412400000000000080fa00000006000200fa000f
:10413400000f78001e007800e20f500012003200d9
:10414400e20f500005003e000000e0000a003200cb
:10415400e10f50000a00320013003700e40f500052
:104164000d003200e40f500009003900e50f500043
:104174000b0032000c003700801c80000b0037005d
:10418400d01c800009003700201d80000700370084
:10419400701d800005003700c01d8000030037003b
:1041a400101e8000010037000000eb000080fa00c0
:1041b400000006000200fa00000f78001e007800dc
:1041c400e20f500012003200e20f500005003e00e2
:1041d4000000e0000a003200e10f50000a00320043
:1041e40013003700e40f50000d003200e40f5000bc
:1041f40009003900e50f50000b0032000c003700b5
:104204008903a8000a0037009303a80008003700b8
:104214009d03a80006003700a703a8000400370088
:10422400b103a80002003700bb03a800000000008f
:104234000080fa00000006000400fa00000f780075
:10424400110798001e007800e20f5000140032009d
:10425400e20f500005003e000000e0000a003200ba
:10426400e10f50000b00320019003700e40f50003a
:1042740011003200e40f50000c003900e50f50002b
:1042840010003200120037009e009000611c88006c
:104294000f0037009e009000b11c88000c0037000e
:1042a4009e009000011d8800090037009e009000c8
:1042b400511d8800060037009e009000a11d880053
:1042c400030037009e009000f11d880000000000ec
:1042d4000080fa00000006000400fa00000f7800d5
:1042e400110798001e007800e20f500014003200fd
:1042f400e20f500005003e000000e0000a0032001a
:10430400e10f50000b00320019003700e40f500099
:1043140011003200e40f50000c003900e50f50008a
:1043240010003200120037009e009000711c8800bb
:104334000f0037009e009000c11c88000c0037005d
:104344009e009000111d8800090037009e00900017
:10435400611d8800060037009e009000b11d880092
:10436400030037009e009000011e8800000000003a
:104374000080fa00000006000200fa00000f780036
:104384001e007800e20f500022003200e20f5000bd
:1043940005003e000000e0000a003200e10f50007a
:1043a4001200320043003700e40f50002d003200a9
:1043b400e40f500021003900e50f500033003200b3
:1043c4003c003700401c80004800de006140600073
:1043d4000080fb0000f0a7000000ea000000ea00f3
:1043e4004f00de000040780033003700901c80004e
:1043f4004800de00614060000080fb0000f0a70080
:104404000000ea000000ea004f00de0000407800ef
:1044140029003700e01c80004800de006140600095
:104424000080fb0000f0a7000000ea000000ea00a2
:104434004f00de00004078001f003700301d800070
:104444004800de00614060000080fb0000f0a7002f
:104454000000ea000000ea004f00de00004078009f
:1044640015003700801d80004800de0061406000b8
:104474000080fb0000f0a7000000ea000000ea0052
:104484004f00de00004078000b003700d01d800094
:104494004800de00614060000080fb0000f0a700df
:1044a4000000ea000000ea004f00de00004078004f
:1044b400010037000040eb000080fa000000060015
:1044c4000200fa00000f78001e007800e20f50008e
:1044d40022003200e20f500005003e000000e00020
:1044e4000a003200e10f500012003200430037008e
:1044f400e40f50002d003200e40f50002100390079
:10450400e50f5000330032003c003700501c80009f
:104514004f00de00004078000080fb0000f0a700a0
:104524000000ea000000ea004f00de0000407800ce
:1045340033003700a01c80004f00de0000407800ec
:104544000080fb0000f0a7000000ea000000ea0081
:104554004f00de000040780029003700f01c800086
:104564004f00de00004078000080fb0000f0a70050
:104574000000ea000000ea004f00de00004078007e
:104584001f003700401d80004f00de00004078000f
:104594000080fb0000f0a7000000ea000000ea0031
:1045a4004f00de000040780015003700901d8000a9
:1045b4004f00de00004078000080fb0000f0a70000
:1045c4000000ea000000ea004f00de00004078002e
:1045d4000b003700e01d80004f00de000040780033
:1045e4000080fb0000f0a7000000ea000000ea00e1
:1045f4004f00de0000407800010037000040eb006f
:104604000080fa00000006000200fa00000f7800a3
:104614001e007800e20f500022003200e20f50002a
:1046240005003e000000e0000a003200e10f5000e7
:104634001200320043003700e40f50002d00320016
:10464400e40f500021003900e50f50003300320020
:104654003c003700501c80004700de0061406000d1
:104664000080fb0000f0a7000000ea000000ea0060
:104674004f00de000040780033003700a01c8000ab
:104684004700de00614060000080fb0000f0a700ee
:104694000000ea000000ea004f00de00004078005d
:1046a40029003700f01c80004700de0061406000f4
:1046b4000080fb0000f0a7000000ea000000ea0010
:1046c4004f00de00004078001f003700401d8000ce
:1046d4004700de00614060000080fb0000f0a7009e
:1046e4000000ea000000ea004f00de00004078000d
:1046f40015003700901d80004700de006140600017
:104704000080fb0000f0a7000000ea000000ea00bf
:104714004f00de00004078000b003700e01d8000f1
:104724004700de00614060000080fb0000f0a7004d
:104734000000ea000000ea004f00de0000407800bc
:10474400010037000040eb000080fa000000060082
:104754000200fa00000f78001e007800e20f5000fb
:1047640022003200e20f500005003e000000e0008d
:104774000a003200e10f50001200320043003700fb
:10478400e40f50002d003200e40f500021003900e6
:10479400e50f5000330032003c003700501c80000d
:1047a4004600de00614060000080fb0000f0a700ce
:1047b4000000ea000000ea004f00de00004078003c
:1047c40033003700a01c80004600de00614060001a
:1047d4000080fb0000f0a7000000ea000000ea00ef
:1047e4004f00de000040780029003700f01c8000f4
:1047f4004600de00614060000080fb0000f0a7007e
:104804000000ea000000ea004f00de0000407800eb
:104814001f003700401d80004600de00614060003c
:104824000080fb0000f0a7000000ea000000ea009e
:104834004f00de000040780015003700901d800016
:104844004600de00614060000080fb0000f0a7002d
:104854000000ea000000ea004f00de00004078009b
:104864000b003700e01d80004600de006140600060
:104874000080fb0000f0a7000000ea000000ea004e
:104884004f00de0000407800010037000040eb00dc
:104894000080fa00000006000200fa00000f780011
:1048a4001e007800e20f500022003200e20f500098
:1048b40005003e000000e0000a003200e10f500055
:1048c4001200320043003700e40f50002d00320084
:1048d400e40f500021003900e50f5000330032008e
:1048e4003c003700501c80004500de006140600041
:1048f4000080fb0000f0a7000000ea000000ea00ce
:104904004f00de000040780033003700a01c800018
:104914004500de00614060000080fb0000f0a7005d
:104924000000ea000000ea004f00de0000407800ca
:1049340029003700f01c80004500de006140600063
:104944000080fb0000f0a7000000ea000000ea007d
:104954004f00de00004078001f003700401d80003b
:104964004500de00614060000080fb0000f0a7000d
:104974000000ea000000ea004f00de00004078007a
:1049840015003700901d80004500de006140600086
:104994000080fb0000f0a7000000ea000000ea002d
:1049a4004f00de00004078000b003700e01d80005f
:1049b4004500de00614060000080fb0000f0a700bd
:1049c4000000ea000000ea004f00de00004078002a
:1049d400010037000040eb000080fa0000000600f0
:1049e4000200fa00000f78001e007800e20f500069
:1049f40022003200e20f500005003e000000e000fb
:104a04000a003200e10f5000120032004300370068
:104a1400e40f50002d003200e40f50002100390053
:104a2400e50f5000330032003c003700501c80007a
:104a34004300de00614060000080fb0000f0a7003e
:104a44000000ea000000ea004f00de0000407800a9
:104a540033003700a01c80004300de00614060008a
:104a64000080fb0000f0a7000000ea000000ea005c
:104a74004f00de000040780029003700f01c800061
:104a84004300de00614060000080fb0000f0a700ee
:104a94000000ea000000ea004f00de000040780059
:104aa4001f003700401d80004300de0061406000ad
:104ab4000080fb0000f0a7000000ea000000ea000c
:104ac4004f00de000040780015003700901d800084
:104ad4004300de00614060000080fb0000f0a7009e
:104ae4000000ea000000ea004f00de000040780009
:104af4000b003700e01d80004300de0061406000d1
:104b04000080fb0000f0a7000000ea000000ea00bb
:104b14004f00de0000407800010037000040eb0049
:104b24000080fa00000006000200fa00000f78007e
:104b34001e007800e20f500022003200e20f500005
:104b440005003e000000e0000a003200e10f5000c2
:104b54001200320043003700e40f50002d003200f1
:104b6400e40f500021003900e50f500033003200fb
:104b74003c003700501c80004400de0061406000af
:104b84000080fb0000f0a7000000ea000000ea003b
:104b94004f00de000040780033003700a01c800086
:104ba4004400de00614060000080fb0000f0a700cc
:104bb4000000ea000000ea004f00de000040780038
:104bc40029003700f01c80004400de0061406000d2
:104bd4000080fb0000f0a7000000ea000000ea00eb
:104be4004f00de00004078001f003700401d8000a9
:104bf4004400de00614060000080fb0000f0a7007c
:104c04000000ea000000ea004f00de0000407800e7
:104c140015003700901d80004400de0061406000f4
:104c24000080fb0000f0a7000000ea000000ea009a
:104c34004f00de00004078000b003700e01d8000cc
:104c44004400de00614060000080fb0000f0a7002b
:104c54000000ea000000ea004f00de000040780097
:104c6400010037000040eb000080fa00000006005d
:104c74000000fa0010002000002888000030200006
:104c8400102888000345a8007226ef0020002000a9
:104c94002028880080012000f0288800f128800066
:104ca400f0ff29000080600000e0a000f0288800e8
:104cb40090702400e028880020022000501888000a
:104cc400300220000018880030012000901888006d
:104cd4000003200040188800c0022000201888002b
:104ce400f00220003018880020012000801888007d
:104cf40090012000101888004001200060188800ee
:104d040010012000701888002025ef003c25ef00da
:104d14005825ef000424ef000c25ef000e25ef00ca
:104d240085a0a90095a0a80001e5a8000000000046
:104d34000f0007000004a2000004e000fcff3a009a
:104d440000c5a80000000000090007000004a2003c
:104d54000004e000fcff3a00000a2000302888002c
:104d64001de5a8001dc5a9000080fa00000006008a
:104d74000000fa00502880000000d100614060006b
:104d84000080fb0000f0a7000000ea000000ea0039
:104d94004f00de00004078000080fa0000000600aa
:104da4000000fa0050288000004078006140600054
:104db4000080fb0000f0a7000000ea000000ea0009
:104dc4004f00de00004078000080fa00000006007a
:104dd4000000fa001dc5a8001dc5a9000080fa0046
:104de400000006000000fa0039c5a80039c5a90072
:104df4000080fa00000006000000fa0055c5a80073
:104e040055c5a9000080fa00000006000000fa0061
:104e140001c4a80001c4a9000080fa000000060033
:104e24000200fa00000f78001e0078003040900065
:104e34000080fb004f00dd00f128800001f0a1009c
:104e440001007000f02888001e00780030409000b7
:104e5400634060000080fb00630060004d00dd00e3
:104e6400f2288000f1ff2900810061000100700038
:104e7400f02888001e007800204090007f406000e9
:104e84000080fb007f006000f228800001fe2f00fc
:104e94008100610001007000f0288800f128800082
:104ea400f07f2e0000806000f02888001e0078004b
:104eb400104078007f4060000080fb007f006000ad
:104ec4004800dd00e2288000f10f2e00810061001f
:104ed40001007000e02888001e0078001040900057
:104ee4000040e900f043b2008080fb00f0032000a2
:104ef40000806000e228800001fc2f008100610036
:104f040001007000e02888002025ef001de5a800be
:104f14000080fa00000006000200fa00000f78008a
:104f24001e007800304090000080fb004f00dd0040
:104f3400d129800001f0a10001007000d02988006f
:104f44001e007800304090000004e00002003200af
:104f540010c0b3000100370020c0b3000080fb0084
:104f6400630060004d00dd00d2298000f1ff2900bc
:104f74008100610001007000d02988001e007800c3
:104f8400204090007f4060000080fb007f006000b4
:104f9400d229800001fe2f00810061000100700011
:104fa400d0298800d1298000f07f2e000080600085
:104fb400d02988001e007800104078007f406000ef
:104fc4000080fb007f0060004800dd00c2298000f3
:104fd400f10f2e008100610001007000c0298800db
:104fe4001e007800104090000040e900f043b20039
:104ff4008080fb00f003200000806000c229800054
:1050040001fc2f008100610001007000c0298800ac
:105014003c25ef0039e5a8000080fa0000000600f6
:105024000200fa00000f78001e0078003040900063
:105034000080fb004f00dd00b12a800001f0a100d8
:1050440001007000b02a88001e00780030409000f3
:105054000004e0000200320010c0b3000100370079
:1050640020c0b3000080fb00630060004d00dd0041
:10507400b22a8000f1ff2900810061000100700064
:10508400b02a88001e007800204090007f40600015
:105094000080fb007f006000b22a800001fe2f0028
:1050a4008100610001007000b02a8800b12a8000ec
:1050b400f07f2e0000806000b02a88001e00780077
:1050c400104078007f4060000080fb007f0060009b
:1050d4004800dd00a22a8000f10f2e00810061004b
:1050e40001007000a02a88001e0078001040900083
:1050f4000040e900f043b2008080fb00f003200090
:1051040000806000a22a800001fc2f008100610061
:1051140001007000a02a88005825ef0055e5a8007a
:105124000080fa00000006000200fa00000f780078
:105134001e007800304090000080fb004f00dd002e
:105144001120800001f0a1000100700010208800ef
:1051540011208000f0ff29000080600000d0a00032
:10516400102088001e007800204090007f406000de
:105174000080fb007f0060001220800001fe2f00f1
:10518400810061000100700010208800112080005f
:10519400f07f2e0000806000102088001e00780040
:1051a400104078007f4060000080fb007f006000ba
:1051b4004800dd0002208000f10f2e008100610014
:1051c40001007000002088001e007800104090004c
